:020000040800F2
:100000000890002009090008014B0008D1350008BC
:10001000C13E0008BD29000881920008FFFFFFFFD4
:10002000FFFFFFFFFFFFFFFFFFFFFFFF3B82000817
:10003000D9320008FFFFFFFF494D00086D88000816
:100040002309000823090008CD88000823090008B7
:100050002309000823090008230900084F3300087A
:1000600023090008230900082309000823090008C0
:1000700023090008230900082309000823090008B0
:1000800023090008230900082309000823090008A0
:100090001192000823090008230900082309000819
:1000A0002309000801890008230900082309000822
:1000B0002309000831890008458A0008230900083F
:1000C0002309000823090008230900082309000860
:1000D00023090008298E0008A58E0008218F00083A
:1000E0003D330008230900082309000823090008FC
:1000F0002309000823090008230900082309000830
:1001000023090008A5510008798A0008230900087E
:10011000230900082309000823090008230900080F
:1001200023090008230900082309000823090008FF
:10013000DFF80CD000F0FAFB00480047938E01086E
:1001400008900020A0F16101192900D820387047DB
:1001500010B5431A934209D28318881803E010F8A7
:10016000011D03F8011D521EF9D210BD40EA010322
:100170009B0703D009E008C9121F08C0042AFAD25D
:1001800003E011F8013B00F8013B521EF9D210BD0B
:10019000D2B201E000F8012B491EFBD270470022C9
:1001A000F6E710B504460846114602462046FFF71A
:1001B000EFFF204610BD034600E0401C0278002AF5
:1001C000FBD111F8012B00F8012B002AF9D11846B8
:1001D000704730B50EE003460A4601E05B1C521C36
:1001E0001C781578AC4201D1002CF7D115F0FF0F27
:1001F00004D0401C0278002AEDD1002030BD10B59B
:10020000044604E00B7800F8013B03B1491C521E80
:10021000F8D2204610BD0146002000E0401C0A5CD8
:10022000002AFBD1704730B504460020034600E0A9
:100230005B1C934203D2E05CCD5C401BF8D030BD28
:10024000034611F8012B00F8012B002AF9D11846BA
:10025000704700000FB400B58DB010A909900B9045
:1002600000914FF0FF300A9000200C900548069056
:10027000054807906A4609A80F9900F027F90DB0C4
:100280005DF814FBED0400080B0500082DE9FF5F85
:100290001D464FF0FF3BD5E90146002091465F46E1
:1002A0008046A9697F1C01988847296A8246884749
:1002B0000028F6D11AF101000CD024F4C064002EFD
:1002C00019DD600614D5BAF12B0F09D0BAF12D0F44
:1002D0000ED103E0584604B0BDE8F09F44F48064BA
:1002E000A9697F1C01988847761E8246002E02DD90
:1002F000BAF1300F03D0B9F1000F26D032E0761EEC
:10030000A96944F400747F1C019888478246002E36
:1003100005DDBAF1780F06D0BAF1580F03D0B9F164
:10032000000F10D01EE0B9F1000F02D0B9F1100F8C
:1003300018D1761EA96924F400747F1C019888479F
:100340008246102002E0082000E00A20814609E0F1
:1003500008FB0908761EA96944F400747F1C019803
:1003600088478246002E05DD4946504600F097F842
:100370000028EDDAE96901988847A00502D46FF0FA
:100380000100A8E7E00726D1600613D5C8F10000F8
:10039000610500D44046296801F104022A60096819
:1003A000220501D5087016E0220701D5088012E069
:1003B000086010E0286800F1040129600068210548
:1003C00002D580F8008006E0210702D5A0F8008061
:1003D00001E0C0F8008038467DE770B506460FF0B2
:1003E00097F8046805460A220021304600F09EF87E
:1003F0002C6070BD70B506460FF08AF8046805469B
:100400000A220021304600F091F82C6070BD30B512
:100410000B46014600202022012409E021FA02F5C2
:100420009D4205D303FA02F5491B04FA02F528445C
:10043000151EA2F10102F1DC30BD2DE9F05F054689
:10044000002092469B4688460646814640241CE092
:10045000284641464746224600F089FA52465B4606
:10046000801A994111D310461946224600F070FABD
:100470002D1A67EB0107B8464F462246012000219E
:1004800000F066FA38184E418146201EA4F101049E
:10049000DEDC484631462A464346BDE8F09F3A280E
:1004A00000D2303820F02002412A01D3A2F13700D7
:1004B0004FF0FF32884200D20246104670470000DB
:1004C0000268114413780160184670470B461146C4
:1004D000044A4A61044A0A620022C1E9033200F078
:1004E00077BA0000C1040008BD090008426842B1A3
:1004F000016811F8013B23B1521EC0E900121846F1
:1005000070470121C160881E7047416859B1C368B6
:10051000026843B98368934205D0521E491CC0E962
:100520000021002070474FF0FF3070472DE9F04761
:100530000F46914680460446002614F8015B2DB113
:1005400000F038FA0068405DC007F6D12B2D02D0CC
:100550002D2D18D0641E4A463946204600F0D4FBA3
:1005600027B13968A14201D1C7F8008071054FF069
:1005700002040BD54042002803DD0EF0C9FF0460E1
:10058000A007BDE8F08746F48066E4E70028F8DAC3
:100590000EF0BEFF04606FF00040F2E72DE9FE4F61
:1005A000074681EA0300C00F0E46019021F000418A
:1005B00023F00044B81AA14105D238463146174607
:1005C0001E460B46024623F00040104304D1384635
:1005D000314603B0BDE8F08F350DC5F30A00C3F313
:1005E0000A510290401A009040286ADAC3F31300BF
:1005F00040F4801083460198924630B10023D2EB3C
:10060000030163EB0B008A46834600985946C0F10C
:100610004002504600F09CF980460C465046594630
:10062000009A00F0B4F9C0197141EF1785EA11532F
:100630003B433FD0019A4AB3009A012A11DC0022C1
:10064000801A4FF0004361EB055103EA055380180F
:10065000CDE9002341F580114246234600F0B0FB6E
:10066000B7E72E050025401B61EB0601401941F557
:100670008012001852412818A6F5001343EB02011E
:1006800040EAD47018EB0808644113E064084FEAAC
:1006900038084FF0000244EAC0744FEA0553801A4C
:1006A00061EB0301801841F5801149084FEA3000E1
:1006B000801859414246234603B0BDE8F04F00F090
:1006C00072BB0198012240000023D0EB020263EBD1
:1006D000E07301984FEAE074381A66EB0401EBE727
:1006E00083F000435AE781F0004157E72DE9FE4FC0
:1006F00081EA0304002621F0004504F0004423F0C1
:100700000041B246009450EA050302D052EA0103C8
:1007100004D10020014603B0BDE8F08FC5F30A54B0
:10072000C1F30A53C1F313011C4441F48018A0FB28
:100730000213C5F3130545F4801C0CFB023300FBC8
:10074000083E8B46A4F2F334810A930A41EA8C51A5
:1007500043EA88530194A1FB03474FEA9C2505FB1C
:1007600003734FEA982601FB06373D05260545EA47
:100770001435BBEB06016EEB0503850E920E45EAC0
:100780008C1542EA8812A5FB0206261E67EB0007BD
:100790000C0D44EA0334A61947EB1350C1F31304BC
:1007A0004FF000031946E5FB02014FEA033343EA29
:1007B00014534FEA0432019C43EA0603A4F10C04EB
:1007C0000294009CCDE900A400F0FAFAA3E72DE919
:1007D000F04D81EA030404F00044A34621F00047F1
:1007E0004FF0000C1446E24623F0004150EA0702A5
:1007F00020D054EA01021DD0C1F30A550246C1F3CC
:100800001300C7F30A56C7F3130340F4801143F4EF
:100810008013A6EB0508101BD64608F2FD3873EBD3
:10082000010002D308F1010801E092185B41B8F120
:10083000000F03DA00200146BDE8F08D00204FF4E0
:100840008015064607460EE0B2EB040C73EB010C74
:1008500004D3121B064363EB01032F436D084FEAD9
:10086000300092185B4150EA050CEDD152EA0300CA
:1008700012D082EA040083EA0105284303D1002252
:100880004FF0004308E0101B8B4102D201220023ED
:1008900002E06FF0010253101AEB060047EB08511B
:1008A00010EB0A0041EB0B01BDE8F04D00F07BBA04
:1008B000C1F30A52C1F3130140F2FF3341F4801136
:1008C0009A4202DA00200146704740F233439A42CE
:1008D000A2F2334202DC524200F049B800F038B8CC
:1008E00030B5002904DB4FF00044404264EB0101C5
:1008F000002B05DB4FF00044524264EB0304234617
:10090000994208BF904230BD0648804706480047DC
:10091000FEE7FEE7FEE7FEE7FEE7FEE7FEE7FEE7AF
:10092000FEE7FEE77D88000831010008064C074D10
:1009300006E0E06840F0010394E8070098471034AF
:10094000AC42F6D3FFF7F8FB10C0010830C0010835
:10095000202A04DB203A00FA02F10020704791407F
:10096000C2F1200320FA03F3194390407047202A74
:1009700004DB203A21FA02F00021704721FA02F349
:10098000D040C2F120029140084319467047202A06
:1009900006DBCB17203A41FA02F043EAE07306E0A7
:1009A00041FA02F3D040C2F12002914008431946B7
:1009B00070470000004870479CBD010810B5044610
:1009C000FFF7F8FF0068005D00F0010010BD0000B7
:1009D0002DE9F34F0020804601208BB082460A901B
:1009E00001F10C000C4600260DF1080B0190626924
:1009F00001210198904705002DD0252D2CD0216A8A
:100A00008847C0B16269012101989047216A8847EF
:100A10000028F7D1411E62690198904700E0761CDA
:100A2000A1690B988847216A88470028F7D1E169B6
:100A30000B988847DBE7A1690B9888470746A842CF
:100A400001D1761CD3E7E1690B9888477F1C02D15E
:100A5000B8F1000F72D016E1002762693D463946B1
:100A6000019890472A2804D1626901210198904792
:100A70000125DFF890926269012101989047A0F169
:100A800030020A2A0DD2BAF1000F0AD04F45E2DC3B
:100A900007EB870100EB4107303FDCD445F0100540
:100AA000E9E7E90601D46FF000476C280AD04C282A
:100AB00014D0682815D06A280DD074281CD07A2844
:100AC0001AD01DE062690121019890476C2802D07C
:100AD00045F0040514E045F002050DE045F0200561
:100AE0000AE06269012101989047682802D045F028
:100AF000080505E045F40065626901210198904709
:100B0000C4E90157652842D019DC58287ED00CDC96
:100B100045283CD004DC252826D0412831D136E0B8
:100B2000462834D047282CD131E05B287BD061287F
:100B30002DD0632877D0642823D15EE022E06F288F
:100B40004CD008DC662822D0672820D0692826D01F
:100B50006E2816D12CE0702849D073286CD07528E7
:100B60004BD078280DD151E0A1690B9888470546F4
:100B700025283FF466AFE1690B9888476D1C3FF468
:100B800067AF80E04FF0FF300DB0BDE8F08F234637
:100B90006A466FF001000B99AFF300809DE045F0CD
:100BA00040006060A80723464FF0000235D43DE0C6
:100BB000206800F1040121600068290501D5067054
:100BC00015E7290701D5068011E7A90704D54FEAE3
:100BD000E671C0E900610AE7066008E745F04000F9
:100BE0006060A80723464FF0080216D41EE040F6C6
:100BF0000E0125EA0100606016E045F040006060EB
:100C0000A80723464FF00A0207D40FE045F0400042
:100C10006060A80708D5234610226FF001000B99E9
:100C2000AFF3008059E007E0234610226FF0010087
:100C30000B99FFF72BFB50E00027B9463B46632892
:100C400002D05B2807D040E0E80601D4C4F808A031
:100C50000120814639E062690121019890475E28B0
:100C600004D101276269394601989047216931B959
:100C700000235A4642F82130491C0829FADB10B1FA
:100C8000216911B10FE040467EE7C11700EBD16347
:100C90005A110BEB820123F01F03C31A0A680AFAE8
:100CA00003F002430A6062690121019890475D28C0
:100CB000E5D14FB10020594651F82020D24341F8E8
:100CC0002020401C0828F7DB02AB2246CDF800901C
:100CD0006FF001000B99AFF30080002808DA4FF0A5
:100CE000FF31401C01D10A9800B9414608464BE744
:100CF000E90702D108F101018846064400200A9064
:100D000075E60000CCCCCC0C2DE9F05F82460446A1
:100D100000780027641C8B461546B946302801D060
:100D20009DB113E014F8010B0127782803D058284F
:100D300001D045B10AE00DB1102D07D100271025D3
:100D400014F8010B02E0082500E00A250026B04651
:100D50000FE005FB080005FB06F101EB104601273B
:100D600080B28046B6F5803F01D30120814614F859
:100D7000010B2946FFF793FB0028EADABBF1000FCD
:100D800004D0641E07B95446CBF80040B9F1000FF7
:100D900006D00EF0BDFB02210160C81EBDE8F09F29
:100DA00048EA0640FAE710B5002B08DA401C41F18A
:100DB000000192185B411A4301D120F0010010BDDF
:100DC0002DE9FF4D934611B1B1FA81F202E0B0FA7C
:100DD00080F220329246FFF7BBFD039A0746884611
:100DE00040EA0B0011435B46084304D138464146B4
:100DF00004B0BDE8F08D114653EA010018D0CAF1E5
:100E000040025846FFF7B3FD04460D464FF0010679
:100E1000584652460399FFF79BFD084300D1002630
:100E2000344345EAE6753C4345EA08052746A846AB
:100E30000E984FF00005A0EB0A014FEAD7200A31C7
:100E40004FEA47532A4640EA48504FEAD82402D591
:100E500000200146CCE7281844EB0151DDE90C45A0
:100E6000001904B06941BDE8F04D9CE770B501EB95
:100E7000020410F8015B15F0070301D110F8013BE3
:100E80002A1106D110F8012B03E010F8016B01F8CC
:100E9000016B5B1EF9D12B0705D40023521E0FD422
:100EA00001F8013BFAE710F8013B02F10202A1EB65
:100EB000030303E013F8015B01F8015B521EF9D54F
:100EC000A142D6D3002070BD0029816802D041F034
:100ED000010101E021F0010181607047014600201D
:100EE0008968490700D501207047C06C80B27047FF
:100EF0000246002012680A4200D0012070470146D5
:100F000000208968090700D50120704710B54268A4
:100F10000E4B0C791A400B6842EA042213434360DB
:100F200083680B4A1340D1E9024222434C7943EAD9
:100F300044031A438260C26A097C22F47002491E8B
:100F4000C9B242EA0151C16210BD0000FFFEF0FFCC
:100F5000FDF7F1FF70B5072509290AD9C468A1F189
:100F60000A0606EB4606B540AC43B3401C43C460DA
:100F700007E0046901EB4106B540AC43B3401C43B4
:100F800004611F23072A09D2446B521E02EB82021E
:100F900093409C4391400C43446370BD0D2A09D299
:100FA000046BD21F02EB820293409C4391400C439E
:100FB000046370BDC46A0D3A02EB820293409C4305
:100FC00091400C43C46270BD816841F008018160AA
:100FD00070470029816802D041F4A00101E021F4AA
:100FE000A00181607047816841F004018160704711
:100FF00006490028D1F8080402D040F4000001E0BE
:1010000020F40000C1F808047047000000200140EF
:1010100010B500F0F0F940F2F95000F04BF9012062
:1010200009F02EF900F08CFABDE81040002009F01C
:1010300027B910B500F0DFF94FF4B66000F03AF9C7
:10104000012009F01DF900F07BFABDE810400020F6
:1010500009F016B910B500F0CEF94FF4C26000F0F7
:1010600029F9012009F00CF900F06AFABDE81040F6
:10107000002009F005B900002DE9F04107460D46B2
:1010800012E000BF17F8016B0024300601D50120E3
:1010900000E0002008F006FD7006060E00F039F9A9
:1010A000641CE4B2082CF0D32800A5F10105EDB2D0
:1010B000E8D1BDE8F041012008F0F4BC10B50446C9
:1010C00000F099F9502000F0F5F802212046FFF7D2
:1010D000D3FF012008F0E6FC5FF0040408F0DAFD1D
:1010E00028B100F02DFA50B144F0100010BD00F00E
:1010F00010F9641E14F0FF04F0D1302010BD00F090
:1011000023F80028FAD044F0200010BD10B50020CC
:1011100009F0B6F8002008F0F1FF002009F07CF893
:10112000002008F08BFF01200AF0A8FA002009F047
:10113000B9F8002008F0B6FC002009F089F8BDE8F5
:10114000104005200AF08EBA10B5012009F064F8AD
:10115000012008F0A7FC012008F070FF01200AF030
:101160008DFA002009F058F806200AF07BFA0020DA
:1011700008F064FF01200AF081FA08F08BFD0128D5
:1011800001D0012010BD002010BD000070B5144634
:10119000012803D0022801D0012070BD34B10128FC
:1011A0002FD04FF49C65022833D034E0012802D0C0
:1011B000022811D058E000F01EF9B02000F07AF8B3
:1011C0005FF0000400F06AF808B1122010E0641C1F
:1011D000E4B2202CF6D347E000F00DF94FF438705C
:1011E00000F068F85FF0000400F058F820B1132018
:1011F00000EB0410C0B270BD641CE4B2202CF3D329
:1012000032E000F0F8F84FF42C7000F053F80621AB
:1012100007E0012909D000F0EEF8284600F04AF86E
:1012200004212046FFF728FF1CE000F0E4F82846E0
:1012300000F040F804212046FFF71EFF8024012023
:1012400008F030FC08F026FD28B100F079F948B12B
:1012500044F0800070BD00F05CF8641E14F0FF04E0
:10126000EDD101E0FFF770FF002070BD70B50446BE
:101270000D4600F0C0F8200100F01CF8002409E041
:1012800000F00CF820B1112000EB0410C0B270BDCA
:10129000641CA4B2AC42F3D3002070BD10B5FFF7BC
:1012A00053FF08B1012010BD102000F003F800200A
:1012B00010BD000010B5044604E000BF00F029F89E
:1012C000641EA4B2002CF9D110BD10B5012008F0A5
:1012D000E9FF002008F0B2FE01200AF0CFF900205B
:1012E00008F0CEFF002008F009FF002008F094FF6E
:1012F000012008F0D7FB012008F0AAFF05200AF022
:10130000B1F9012008F0BCFFBDE81040012008F051
:10131000F5BE10B5012008F091FE01200AF0AEF9EB
:10132000002008F08BFEBDE8104001200AF0A6B9AD
:10133000012807D0022809D10A4620215FF02E009B
:1013400000F044B80A4620210B20F9E7704770B539
:10135000012008F0A7FB00252C466D0008F09AFC40
:101360002844C5B2FFF7D5FF641CE4B2082CF4D3BF
:10137000284670BD02460421072000F027B8024627
:101380000121002000F022B802460421012000F0D3
:101390001DB802460121592000F018B8024601216B
:1013A000582000F013B830B1012808D10A460821AE
:1013B000502000F00BB80A4601210620F9E77047DB
:1013C00002460121062000F001B8000070B5044675
:1013D0000D46164600F00FF82001FFF76BFF0024C2
:1013E00005E000BFFFF7B3FF3055641CA4B2B4EBB7
:1013F000450FF7D370BD10B5012008F01FFE012086
:101400000AF03CF9012008F03BFF002008F016FE2E
:1014100001200AF033F9002008F032FFBDE8104047
:1014200002200AF02BB910B50C4601280AD0022878
:1014300001D0012010BD02214E20FFF717FF60B13F
:10144000032010BD03212B20FFF710FF08B102205D
:1014500010BD032122462B2002E0022122464E200D
:10146000BDE8104000F0BCB870B50646012105206B
:10147000FFF7FCFE08B1012070BDFFF7BCFF502054
:10148000FFF718FF35780024280601D400F058F83B
:10149000FFF73FFF6806641C050EE4B2082CF3D387
:1014A00075780024280601D400F04AF8FFF731FFD0
:1014B0006806641C050EE4B2082CF3D3002070BD4E
:1014C00010B5044604210720FFF7D0FE08B1012023
:1014D00010BD22460421BDE81040072000F080B86E
:1014E00010B5044604210120FFF7C0FE08B1012019
:1014F00010BD22460421BDE81040012000F070B864
:1015000010B5044601215920FFF7B0FE08B10120B3
:1015100010BD22460121BDE81040592000F060B8FE
:1015200010B5044601215820FFF7A0FE08B10120A4
:1015300010BD22460121BDE81040582000F050B8EF
:1015400010B5012008F068FE002008F0ABFA012079
:1015500008F074FD01200AF091F8002008F05CFE0C
:10156000012008F09FFA06200AF07CF8002008F01D
:1015700065FD01200AF082F808F08CFB002800D0FD
:10158000012010BD012803D0022801D0012070479E
:101590000A78012842F0C0020A7003D0022805D060
:1015A000002070470A4620210B2002E00A46202135
:1015B0002E2000F015B870B505460024280605D485
:1015C000FFF7BEFF10B1641CE0B270BDFFF7A1FED3
:1015D0006806641C050EE4B2082CEFD3002070BD31
:1015E00070B504460D461646FFF705FF2001FFF7CC
:1015F00061FE00240AE0305DFFF7DDFF20B121012C
:1016000010310143C8B270BD641CE4B2B4EB450FA5
:10161000F1D3002070BD00002DE9F04107460D46D2
:1016200012E000BF17F8016B0024300601D501203D
:1016300000E0002008F036FA7006060E00F062F9AD
:10164000641CE4B2082CF0D32800A5F10105EDB22A
:10165000E8D1BDE8F041012008F024BA70B5044695
:10166000401E0D46042801D3402070BD00F022FA30
:1016700004EB440000EB04204FF2900101EB00105A
:1016800080B200F013F902212846FFF7C5FF0120C0
:1016900008F008FA5FF0080408F0FCFA28B100F03E
:1016A000B7FB50B144F010000DE000F02BF9641EC0
:1016B0002404240CF0D1302070BD00F0D6F80028AE
:1016C000FAD044F02000C0B270BD000010B504464E
:1016D00000F0F0F9502000F0E9F802212046FFF771
:1016E0009BFF012008F0DEF95FF0080408F0D2FA51
:1016F00028B100F08DFB50B144F0100010BD00F097
:1017000001F9641E14F0FF04F0D1302010BD00F088
:10171000ACF80028FAD044F0200010BD70B50446A3
:10172000401E0D46042801D3402070BD00F0C2F9D0
:1017300004EB440000EB04204FF2780101EB0010B1
:1017400080B200F0B3F802212846FFF765FF0120C0
:1017500008F0A8F95FF0080408F09CFA28B100F03E
:1017600057FB50B144F010000DE000F0CBF8641EC0
:101770002404240CF0D1302070BD00F076F800284D
:10178000FAD044F02000C0B270BD10B5002008F0BF
:1017900077FD002008F0B2FC002008F03DFD00209D
:1017A00008F04CFC012009F069FF002008F07AFDE8
:1017B000002008F077F9002008F04AFDBDE810404D
:1017C000052009F04FBF000070B504460D4600F03B
:1017D00071F9E004000C00F069F8002407E000BF94
:1017E00000F038F808B1012070BD641CA4B2AC420E
:1017F000F6D3002070BD70B50446401E0E46154657
:10180000042801D3032070BD7019042C03D2B0F555
:10181000007F04D805E004D1B0F5E57F01D30220B4
:1018200070BD00F047F941F23000444304EBC600BC
:10183000A0F6587080B200F039F8002406E000F0FD
:1018400009F808B1012070BD641CA4B2AC42F6D303
:10185000002070BD10B500F008F808B1012010BDDF
:10186000082000F023F8002010BD10B5012008F07A
:10187000D3FC012008F016F9012008F0DFFB01205D
:1018800009F0FCFE002008F0C7FC062009F0EAFE83
:10189000002008F0D3FB012009F0F0FE08F0FAF96F
:1018A000012801D0012010BD002010BD10B5044654
:1018B00004E000BF00F026F8641EA4B2002CF9D1A9
:1018C00010BD10B5012008F0EDFC002008F0B6FBBB
:1018D000012009F0D3FE002008F0D2FC002008F01F
:1018E0000DFC002008F098FC012008F0DBF8012036
:1018F00008F0AEFC052009F0B5FEBDE8104001205F
:1019000008F0FCBB10B5012008F098FB012009F09D
:10191000B5FE002008F092FBBDE81040012009F060
:10192000ADBE70B504460D46164600F0C3F8E0049F
:10193000000CFFF7BBFF002404E000F031F8305545
:10194000641CA4B2AC42F8D370BD2DE9F04104464A
:10195000401E0F4615461E4604281FD27819042C37
:1019600003D2B0F5007F19D803E002D1B0F5E57FCE
:1019700014D200F09FF841F23000444304EBC7005A
:10198000A0F6587080B2FFF791FF002404E000F049
:1019900007F83055641CA4B2AC42F8D3BDE8F0811E
:1019A00070B5012008F07EF800252C466D0008F087
:1019B00071F92844C5B2FFF7A5FF641CE4B2082CF6
:1019C000F4D3284670BD024608210D20FFF7A9BFB9
:1019D000421E042A0FD200EB400202EB0020064A0E
:1019E00002EB0010C21700EB52700A46C0F3CF00A2
:1019F0000221FFF796BF704790F0FFFF421E042AB6
:101A00000FD200EB400202EB0020064A02EB00106E
:101A1000C21700EB52700A46C0F3CF000121FFF756
:101A200080BF7047A0F0FFFF024602210020FFF7B1
:101A300078BF024608210220FFF773BF0246022149
:101A400040F2F670FFF76DBF024602210A20FFF751
:101A500068BF024601210C20FFF763BF421E042A23
:101A60000FD200EB400202EB0020064A02EB00100E
:101A7000C21700EB52700A46C0F3CF000221FFF7F5
:101A800050BF704778F0FFFF421E042A0FD200EBD0
:101A9000400202EB0020064A02EB0010C21700EBE6
:101AA00052700A46C0F3CF000121FFF73ABF7047DA
:101AB00088F0FFFF10B5012008F0C0FA012009F0FE
:101AC000DDFD012008F0DCFB002008F0B7FA012062
:101AD00009F0D4FD002008F0D3FBBDE8104002203F
:101AE00009F0CCBD10B5044608210D20FFF76CFEAF
:101AF00008B1022010BD22460821BDE810400D208B
:101B000000F026B970B50E46411E042901D303200A
:101B100070BD00EB400101EB0020194901EB001002
:101B2000C11700EB5170C0F3CF0402212046FFF72C
:101B30004BFE08B1022070BDFFF7BCFFE004000CB3
:101B4000FFF7B4FE35780024280601D400F060F9D0
:101B5000FFF7D8FE6806641C050EA4B2082CF3D368
:101B600075780024280601D400F052F9FFF7CAFE68
:101B70006806641C050EA4B2082CF3D3002070BDC7
:101B800090F0FFFF70B50C46411E042901D30320DD
:101B900070BD00EB400101EB00200B4901EB001090
:101BA000C11700EB5170C0F3CF0501212846FFF7A4
:101BB0000BFE08B1022070BD22462846BDE87040E9
:101BC000012100F0C5B80000A0F0FFFF10B50446E9
:101BD00008210220FFF7F8FD08B1022010BD2246BF
:101BE0000821BDE81040022000F0B2B870B50546EB
:101BF00040F2F67402212046FFF7E6FD08B102200C
:101C000070BD2A462046BDE87040022100F0A0B811
:101C100070B5064602210A20FFF7D6FD08B1022062
:101C200070BDFFF747FF5020FFF740FE35780024D6
:101C3000280601D400F0ECF8FFF764FE6806641C87
:101C4000050EE4B2082CF3D375780024280601D4DD
:101C500000F0DEF8FFF756FE6806641C050EE4B2DD
:101C6000082CF3D3002070BD10B5044601210C20D0
:101C7000FFF7AAFD08B1022010BD22460121BDE8F0
:101C800010400C2000F064B870B50E46411E0429C7
:101C900001D3032070BD00EB400101EB0020194986
:101CA00001EB0010C11700EB5170C0F3CF0402210B
:101CB0002046FFF789FD08B1022070BDFFF7FAFE4C
:101CC000E004000CFFF7F2FD35780024280601D46B
:101CD00000F09EF8FFF716FE6806641C050EA4B21D
:101CE000082CF3D375780024280601D400F090F86E
:101CF000FFF708FE6806641C050EA4B2082CF3D397
:101D0000002070BD78F0FFFF70B50C46411E04291D
:101D100001D3032070BD00EB400101EB00200B4913
:101D200001EB0010C11700EB5170C0F3CF0501218A
:101D30002846FFF749FD08B1022070BD224628461B
:101D4000BDE87040012100F003B8000088F0FFFFFB
:101D500070B504460D461646FFF7ACFEE004000CD5
:101D6000FFF7A4FD002407E0305D00F03CF808B167
:101D7000012070BD641CA4B2AC42F5D3002070BD3C
:101D80002DE9F0410446401E0F4615461E46042824
:101D900002D30320BDE8F0817819042C03D2B0F5FA
:101DA000007F04D805E004D1B0F5E57F01D302201F
:101DB000F0E7FFF77FFE41F23000444304EBC70039
:101DC000A0F6587080B2FFF771FD002407E0305D87
:101DD00000F009F808B10120DCE7641CA4B2AC42B1
:101DE000F5D30020D6E770B505460024280605D4B3
:101DF00000F00EF810B1641CE0B270BDFFF782FD78
:101E00006806641C050EE4B2082CEFD3002070BDF8
:101E100010B5012008F000FA002007F043FE012071
:101E200008F00CF9012009F029FC002008F0F4F971
:101E3000012007F037FE062009F014FC002008F00E
:101E4000FDF8012009F01AFC07F024FF002800D05B
:101E5000012010BDF0B54A4A50681368C0F307412D
:101E6000C1F3001404EB410101F01F06C0F3072188
:101E700061F31740434C014660F30F2167784FEA46
:101E80001365C3F3074080EA070060F31F63C3F3E1
:101E9000072060F31743184663F30F2065F307012B
:101EA00005EB0603DDB265F307004FF01F031F2D9E
:101EB00009D9B5FBF3F603FB165515B165F3070019
:101EC00001E063F3070010605160D2F80D10A778AD
:101ED000C1F30745C5F3801606EB450505F07F06FF
:101EE000C1F3072565F31741D2F809004F4067F3A6
:101EF0000F21070EC0F3074C6CF31F60C0F3072CD3
:101F000035446CF31740EDB260F30F2067F307011F
:101F100065F307007F2D0AD97F26B5FBF6F706FB90
:101F2000175515B165F3070001E066F30700C2F825
:101F30000900C2F80D10D2F81200E478060EC0F3C2
:101F4000074565F31F60C0F30727674067F3174035
:101F5000917D044660F30F246818C0B260F3070453
:101F60001F2809D9B0FBF3F103FB110010B160F396
:101F7000070401E063F30704C2F812409675F0BD50
:101F8000B43D0020F0090020064900F01F024A700D
:101F9000782202EAC00202EB50128A70C008C870B0
:101FA000FFF758BFF009002010B5114C0020E07079
:101FB0006070A070FFF74EFF0E4801780079414035
:101FC0000C4801F01F02123062700178C078414065
:101FD000084801F01F030930E3700078A070C0F1D9
:101FE000FF0118401140084300F00F0010BD000031
:101FF000F0090020B43D002030B50546002004461D
:1020000004E000BFFFF7D0FF641CE4B2AC42F9D398
:1020100030BD000070B58EB0064601AB0822282105
:10202000012000F061F910B130200EB070BD002425
:102030000DF110050DF06AF82855641CE4B2082C67
:10204000F8D30AA8009007AB04AA314601A800F013
:102050001DF804A800F0A4F808B14020E5E707A89F
:1020600000F0DEF90028E0D101AB08222821012090
:1020700000F03AF908B15020D7E708220AA901A8D0
:10208000FEF7D1F80028D0D06020CEE72DE9F0434C
:1020900007460D4627480021DDF81C90016041608D
:1020A000C0F80910C0F80D10C0F812101646984676
:1020B000C0F816104FEA010417F81400FFF764FF88
:1020C00007EB44004078FFF75FFF305DFFF75CFFF0
:1020D000641CE4B2042CEFD35FF0000415F8140084
:1020E000FFF752FF05EB44004078FFF74DFF301932
:1020F0000079FFF749FF641CE4B2042CEED30024FE
:102100000220FFF779FF05010220FFF775FF284441
:1021100009F804000220FFF76FFF05010220FFF716
:102120006BFF284408F80400641CE4B2082CE7D3D1
:10213000BDE8F083B43D002010B5002008F0A0F801
:10214000002007F0DBFF002008F066F8002007F011
:1021500075FF002008F0A6F8002007F0A3FC00207F
:1021600008F076F8BDE81040052009F07BBA70B59C
:10217000012007F097FC002425466006040E01208C
:1021800007F05CFF07F086FD08B1641CE4B2002094
:1021900007F054FF6D1CEDB2082DEED3204670BD44
:1021A00070B5064600F02DF900F01CF9B62000F0DD
:1021B00057F80A4D287878B90024305D00F050F8BF
:1021C000287848B9641CE4B2082CF6D300F019F959
:1021D00000F06CF8002800D0012070BDF00900204C
:1021E0002DE9F0410546022008F05CF8002007F0D8
:1021F00025FF002008F044F8002007F07FFF0020B2
:1022000008F00AF8012007F04DFC012008F020F842
:10221000052009F027FA012008F032F800F03CF818
:10222000002008F02DF8002427462F550026285DB1
:1022300040082855012007F001FF07F02BFD10B1E1
:10224000285D80302855002007F0F8FE761CF6B295
:10225000082EECD3641CE4B2042CE6D3BDE8F08174
:1022600070B50C4D044600202870200601D50120D1
:1022700000E0002007F016FC00F00EF86006040EE7
:102280002878401CC0B228700828EED300F0C0F9AE
:10229000287070BDF009002010B5012007F0CEFEB7
:1022A000BDE81040002007F0C9BE000070B509F07D
:1022B00061FF0C4D044600BF00F0A3F809F05AFF7F
:1022C000001B642801D9012070BD00F08BF8B520F7
:1022D000FFF7C6FF28780028EED100F092F8002022
:1022E00070BD0000F00900202DE9F04107001546FF
:1022F0000C461E4601EB050004D0802807D90320B8
:10230000BDE8F081B0F5807F07D90220F8E700F042
:1023100078F800F067F8B52004E000F072F800F0FB
:1023200061F8B120FFF79CFF0F4F387820B92046A5
:10233000FFF796FF387808B10120E1E700246D1E11
:1023400007E000BFFFF713FF305500F076F9641C7B
:10235000A4B2AC42F6DBFFF70AFF305500F07CF97F
:1023600000F04FF80020CBE7F009002070B50446DC
:1023700000F047F800F036F8B520FFF771FF094D7F
:10238000287820B98020FFF76BFF287808B101205A
:1023900070BDFFF7ECFE207000F05EF900F031F840
:1023A000002070BDF009002070B50446072801D94F
:1023B000022070BD00F025F800F014F8B220FFF7FD
:1023C0004FFF074D287820B92046FFF749FF2878AE
:1023D00008B1012070BD00F014F8002070BD0000AD
:1023E000F009002010B5012007F05CFB012007F088
:1023F00025FE002007F056FBBDE81040002007F046
:102400001DBE10B5002007F04DFB012007F016FEA1
:10241000012007F047FBBDE81040002007F00EBE8A
:10242000F8B50646FFF7EDFFFFF7DCFFB720FFF733
:1024300017FF194D287870B90024305DFFF710FFA1
:10244000287840B9641CE4B2082CF6D3FFF7D9FF12
:10245000FFF72CFF08B11020F8BD01226B462021A8
:102460001046FFF741FF08B12020F8BD9DF800009D
:10247000FF284FF00000F8D05FF000019DF8002029
:10248000D30701D1401CC0B25208491CC9B28DF813
:1024900000200829F2D3F8BDF00900202DE9F84307
:1024A00000F0070406460F462546802801D345F074
:1024B0000804FFF7A6FFFFF795FFB320FFF7D0FE54
:1024C000DFF8808098F80000A8B92046FFF7C8FE22
:1024D00098F8001079B90024385DFFF7C1FE98F82C
:1024E000000040B9641CE4B2032CF5D3FFF789FF68
:1024F000FFF7DCFE10B11020BDE8F883402000EBB0
:10250000C501802E01D3091DC9B201226B461046B8
:10251000FFF7EAFE08B12020EEE79DF80000FF2853
:102520004FF00000E8D000219DF80020D30701D132
:10253000401CC0B25208491CC9B28DF800200829BD
:10254000F2D3D9E7F00900202DE9F0410700154644
:102550000E46984601EB050004D0802807D90320D9
:10256000BDE8F081B0F5807F01D90220F8E70024B2
:102570000CE000BF3019C1B218F80420384600F052
:1025800009F808B10120EBE7641CA4B2AC42F1D316
:102590000020E5E770B504460E461546FFF731FF0B
:1025A000FFF720FF0CB1B42000E0B020FFF758FE89
:1025B0000A4C207878B93046FFF752FE207850B99F
:1025C0002846FFF74DFE207828B9FFF71AFFFFF7DE
:1025D0006DFE002800D0012070BD0000F009002031
:1025E00010B5FFF70EFFFFF7FDFEB420FFF738FE32
:1025F000064C207820B98020FFF732FE207808B101
:10260000012010BDFFF7FDFE002010BDF0090020E5
:1026100010B5012007F046FA012007F00FFD07F082
:1026200039FB00284FF0000003D007F007FD012020
:1026300010BD07F003FD002010BD10B5002007F00D
:1026400031FA012007F0FAFC002007F0F7FCBDE8A2
:102650001040012007F026BA10B5012007F022FA39
:10266000012007F0EBFC002007F0E8FCBDE810407B
:10267000002007F017BA70B506460C46154600F064
:1026800010F900F0F9F8A02000F0A2F8C4F304203B
:1026900000F09EF8E0B200F09BF8002410E000F09B
:1026A000EBF8A12000F094F808B1012070BD00F013
:1026B00052F8305500F051F900F0F3F8641CA4B260
:1026C000AC42ECD3002070BD2DE9F04107468846AE
:1026D000154600F0E6F800241BE000BF00F0CCF83F
:1026E000A02000F075F808EB0406C6F3042000F003
:1026F0006FF8F0B200F06CF8385D00F069F800F0A7
:10270000D0F800F08AF810B10120BDE8F081641C17
:10271000A4B2AC42E2D30020F7E710B5002007F0E6
:10272000AFFD002007F0EAFC002007F075FD002057
:1027300007F084FC012008F0A1FF002007F0B2FDA3
:10274000002007F0AFF9002007F082FDBDE810403F
:10275000052008F087BF70B5012007F0A3F9002419
:1027600025466006040E012007F068FC012008F0F1
:1027700085FF07F08FFA08B1641CE4B2002007F06F
:102780005DFC012008F07AFF6D1CEDB2082DE8D346
:10279000204670BD10B5012007F084FD002007F031
:1027A0004DFC012008F06AFF002007F069FD0020C1
:1027B00007F0A4FC002007F02FFD012007F072F9BC
:1027C000012007F045FDBDE81040052008F04ABF94
:1027D00070B504460025200601D5012000E0002048
:1027E00007F060F900F00AF860066D1C040EEDB207
:1027F000082DF0D3BDE8704000F091B810B501206D
:1028000007F01CFC012008F039FF002007F016FC3F
:10281000BDE81040012008F031BF10B5062008F0D7
:1028200021FF002010BD70B506460C46154600F08D
:1028300038F800F021F80E2000EAD41040F0A00093
:10284000FFF7C6FFE0B2FFF7C3FF002410E000F07F
:1028500013F8A120FFF7BCFF08B1012070BDFFF7FE
:102860007AFF305500F079F800F01BF8641CA4B230
:10287000AC42ECD3002070BD10B5012007F012F976
:10288000012007F0DBFB012008F0F8FE002007F034
:1028900009F9002007F0D2FBBDE81040012008F044
:1028A000EDBE10B5002007F0FDF8012007F0C6FBD3
:1028B000012008F0E3FE012007F0F4F8002007F003
:1028C000BDFBBDE81040012008F0D8BE2DE9F0475F
:1028D000804689461546FFF7E4FF00240E271AE0DC
:1028E000FFF7CAFF09EB040607EAD61040F0A00084
:1028F000FFF76EFFF0B2FFF76BFF18F80400FFF769
:1029000067FFFFF7CEFFFFF788FF10B10120BDE89A
:10291000F087641CA4B2AC42E2D30020F7E710B504
:10292000012007F0BFF8012007F088FB012008F024
:10293000A5FE07F0AFF900284FF0000006D007F021
:102940007DFB012008F09AFE012010BD07F076FB08
:10295000012008F093FE002010BD10B5012007F003
:10296000A1F8012007F06AFB012008F087FE002093
:1029700007F064FB012008F081FEBDE81040002054
:1029800007F090B80248018841F0010101807047CA
:10299000346C00400248018841F002010180704718
:1029A000346C004001480068C0B27047A0860D42F8
:1029B000014908607047000000860D42FEE7C1B281
:1029C000000A40EA012070472DE9F05F51484BF6BC
:1029D000BF7648F280074E4D40F68F7848F60F7A62
:1029E0004D4C814631E0018811F00F024B490A70CD
:1029F00034D004EB8200D0F8001C89B28B46090465
:102A00000ED5464BD0F8001C89B201EA0801C0F887
:102A1000001C4348197800EB810050F8040C8047F3
:102A20005FEA0B6011D53D48017804EB8101D1F8D4
:102A3000002C92B202EA0A02C1F8002C394900784F
:102A400001EB800050F8040C8047D4F8441C484641
:102A5000A9F800100904C6D4BDE8F09FD4F8001C02
:102A60002980298801F030016980298801F44051CA
:102A70002980D4F8001C89B2314081F4005181F0E2
:102A800020013943C4F8001C0088C0060028D4F88F
:102A9000000C80B218DB00EA0A00C4F8000C01F058
:102AA0002DF928E02988890401D580F4005069882F
:102AB000C9062AD46988890601D580F0200080B231
:102AC0003843C4F8000CC7E7010509D5D4F8000C59
:102AD00080B200EA0800C4F8000C05F0E7FC0AE048
:102AE0000004B2D5D4F8000C80B200EA0800C4F8A3
:102AF000000C02F0BBF8D4F8000C298880B23040FA
:102B0000C904CFD580F48050CCE780F01000D1E725
:102B1000140E0020380D002000500040DB0C002077
:102B2000580D00203C0D0020094901EB8000D0F831
:102B3000001C49040AD5D0F8001C48F68F7289B2EF
:102B400011404CF280021143C0F8001C7047000095
:102B500000500040094901EB8000D0F8001C4906F4
:102B60000AD5D0F8001C48F68F7289B2114048F29D
:102B7000C0021143C0F8001C704700000050004024
:102B8000074901EB8001D1F8000C48F68F6280B252
:102B9000104048F280021043C1F8000C704700005A
:102BA000005000400648416B11F0450FFBD040F249
:102BB000FF518163406908210840C0B2704700009E
:102BC0000080014010B50B480024416B11F0450F07
:102BD000FBD0480702D50324042003E0C80705D032
:102BE0000124204602F080FA204610BD40F2FF503A
:102BF000F8E700000080014070B50C461949064610
:102C00000025486B10F0450FFBD0410702D5032487
:102C1000042003E0C00705D00124204602F064FA36
:102C2000204670BD02F0A0FAB04213D140F2FF502E
:102C300002F05AFA002002F0AFFA10F4604F03D00D
:102C4000810405D5132070BD4FEA1040208007E0B5
:102C5000410401D5102070BD000401D50F2070BDC6
:102C6000284670BD00800140124910B50A68062848
:102C7000117801F07F0103D1012901D1537913B1FA
:102C800021290AD013E09078222802D0212802D0EE
:102C90000DE0094904E0094902E0032807D1084989
:102CA00029B10020916150828847002010BD022088
:102CB00010BD0000DC0C0020052D0008DD2C0008F4
:102CC000E92C0008014905F0BDBC0000840D00207E
:102CD000014905F0B7BC00007C0D0020014905F05A
:102CE000B1BC0000940D002008B1044870470449AD
:102CF000012009680882002070470000780D00203C
:102D0000DC0C0020014905F09DBC00008C0D00206A
:102D100005490968C978042901D900207047034A88
:102D200002EBC10105F08EBCDC0C0020CC0D0020B4
:102D300009B9002800D00220704700000649096840
:102D4000097801F07F01212901D10B2801D002204F
:102D5000704700F075B80000DC0C0020274810B563
:102D6000006800218172C1722549C9794172002031
:102D700005F064FA4FF40071002005F033FB1021D8
:102D8000002005F001FB1821002005F081FA5821F0
:102D9000002005F0DBFA0020FFF7F2FE194890F85A
:102DA0002C10002005F084FA002005F0BBFA4FF447
:102DB000C061012005F016FB4FF48071012005F081
:102DC000C5FA4FF4A071012005F062FA40210120FC
:102DD00005F0CCFA4021012005F06AFA4FF4405189
:102DE000012005F085FA2021012005F0CDFA002010
:102DF00005F02CFA04490120086010BDDC0C00200D
:102E000084BC01089C0D0020D40C002006480068FA
:102E1000807A002806D00549052008600121044871
:102E2000FEF7D7B870470000DC0C0020D40C00205F
:102E3000002401400149042008607047D40C0020A0
:102E4000034804490068C07808600020704700000B
:102E5000DC0C0020780D00207047704710B500F0A2
:102E60009FFB054800240068847201F08FFF06F084
:102E7000D1F90248046010BDDC0C0020D40C002005
:102E80002DE9F04104460F46C0F890301D46164625
:102E90001146803016F0D8F8314604F1880016F05B
:102EA000D3F82A4639462046BDE8F0410FF030B944
:102EB0002DE9FF4104460F4690461E46580703D0B1
:102EC000012004B0BDE8F081002527E008EBC50132
:102ED00002A816F0B9F8D4F890000028029822D081
:102EE000D4F88010484000900398D4F884104840EB
:102EF0000190214668460EF007FDD4F890000028A6
:102F0000009813D0C4F880000198C4F8840000BF72
:102F100007EBC500694617F0F0FF6D1CB5EBD60F47
:102F2000D4D30020CDE700900398E1E754F8801F48
:102F300048400090019861684840019002982060E4
:102F400003986060A4F18004E2E700000349C20036
:102F500002D5C1F804047047486070470000024081
:102F60000029016802D041F0010102E04FF6FE7233
:102F7000114001607047000001460020054ACB0067
:102F800002D5D2F8002400E012680A4200D00120E5
:102F9000704700000000024030B5036847F6F07249
:102FA00093430C6A8A682243D1E904452C432243A7
:102FB0008C692243CC6922434C6A22438C6A2243A7
:102FC0001A430260CA6842600A6882604968C16048
:102FD00030BD00002DE9F05FDFF8A090DFF8A080A1
:102FE0004FF0300AD9F800100A461031167A0888D6
:102FF0000D4608B9042E2AD0AC880426A04200D978
:103000000226844200D90446A0B2A9680746884730
:103010008346002000F0B6FA01463A46584606F0CC
:1030200031F93946002005F0A1F92888001B2880D5
:10303000688820446880A8F800A012494FF44050E6
:10304000A1F80000D9F800000672BDE8F09F0E4814
:103050000178012904D007261021A8F80010F1E713
:103060000A4A002112680A4B4FEA024203EBD232AD
:103070005160A8F800A00170E4E70000DC0C00201B
:10308000160E0020140E0020100E0020505C004090
:10309000006000402DE9F047234EDFF890904FF09C
:1030A0003008346834F8100FA168B1B108B3A588AE
:1030B000854200D90546A8B207468847824620883F
:1030C000401B2080608828446080002000F03AFA8D
:1030D00001463A46504601F0EDFD208848B11449BA
:1030E0004FF4405008800021084605F03FF9A9F848
:1030F00000802088A188884201D3032001E020B10C
:10310000052031680872BDE8F08731680620087232
:10311000084900200968084A4FEA014102EBD13111
:103120004860A9F80080EEE7DC0C0020160E0020B5
:10313000140E0020505C0040006000402DE9F0417A
:103140005C4C5D4D09262068002729684278062AD4
:1031500005D0AAB1082A4DD00A2A50D06BE00278D7
:10316000520668D18078012804D0022804D00328B0
:1031700004D060E0C96956E0096A54E0496A52E047
:103180004288B2BBC288022A55D102798ABB027832
:10319000530601D1838833B102F07F02012A04D0A3
:1031A000022A0CD047E045493DE08A694079002178
:1031B0009047F0B92068807A0028F4D13BE041794B
:1031C00001F00F0001F070020B063D4901EB800198
:1031D000D1F8001C03D5C1F30111090102E0C1F3CC
:1031E00001310903374B1B78834224D90AB90029DE
:1031F000D9D120E0007840061DD1334913E0027890
:1032000002F07F02012A16D1827AA2B1428892B9D5
:10321000027982B9C288012A0DD18A6940790021D8
:10322000904740B9294931B1206847828161002027
:103230008847002006E029682068096940788847A7
:10324000032808D021680A8AA2F57F43FF3B05D1F5
:103250000E72BDE8F08120680672FAE7022808D0F5
:103260003AB1087800061FD5C888824204D908827E
:1032700012E008200872ECE70ED22868144B90F890
:103280002C00824201D21F7006E0B2FBF0F400FB7A
:10329000142008B901201870286890F82C00888242
:1032A000BDE8F041FFF796BE03200872094900030C
:1032B0000880CEE7DC0C0020E00C002089860008A6
:1032C00000500040740D00201D8600086186000833
:1032D000100E0020140E002070470000014901204C
:1032E00008707047D00C002070B51149012005F01E
:1032F000A1FFC0B2402815D10D4A50783E2811D800
:10330000801CC3B202200B4C0B4909E0155C0E88EF
:10331000A5550D886D1CC5F309050D80401CC0B274
:103320009842F3D3BDE87040012004F0FBBF0000D9
:1033300068570020CF3D0020FC09002010B508F0A0
:103340002BFD08F087FDBDE8104008F0E1BD08F056
:103350003DBE0000014908607047000014040140B0
:10336000064A014600201368526903EA01030A4233
:1033700002D0002B00D00120704700000004014063
:1033800030B51F4A8179036899B311460C6824EA65
:1033900003040C604B68046823EA04034B6004795F
:1033A00004EB02031C68056844EA05041C608B6892
:1033B000046823EA04038B60CB68046823EA0403EF
:1033C000CB604379A1F58061102B05D099180A686C
:1033D000006802430A6030BD01F581610A68036834
:1033E00042EA03020A604A68006842EA00024A6050
:1033F00030BDFFE700791044016899430160F7E7A9
:10340000000401400149032008607047D40C0020EB
:1034100010B58A0721F003040649130F21440F2237
:103420008C689A4094438C608A68984002438A6012
:1034300010BD0000000001402DE9F041CB780025CF
:1034400003F00F02DB0601D58B781A430B884FF08F
:103450000F0813F0FF0F4FF0010C1CD0D0F8004004
:103460000E880CFA05F31E409E4210D1AF0008FAF8
:1034700007F624EA060602FA07F43443CE78282E2B
:1034800002D0482E02D002E0436100E003616D1CCF
:10349000082DE5D304600B88FF2B1DD94468002557
:1034A00005F108060CFA06F30E881E409E420FD165
:1034B000AF0008FA07F624EA060602FA07F43443D6
:1034C000CE78282E00D14361CE78482E00D10361FA
:1034D0006D1C082DE4D34460BDE8F081F0B5144CB8
:1034E000002801DAE36900E06368420D120185B249
:1034F000C0F301579540C0F30346032F05D0C20225
:103500000AD50322B240934307E023F07062636858
:1035100023F07063636002E0AB4343F0706201B17B
:103520002A43002801DAE261F0BD6260F0BD0000CC
:10353000000001400246002092680A4200D00120AB
:10354000704700000549096889B201EBC0000449D1
:1035500001EB4000806880B270470000505C004082
:10356000006000400549096889B201EBC0000449C8
:1035700001EB4000C068C0F309007047505C004098
:10358000006000400449096889B201EBC0000349AA
:1035900051F8100080B27047505C0040006000405D
:1035A000094810B501684468806808180BD00822E3
:1035B000064900F0D1FB054920460422BDE8104031
:1035C000103100F0C9BB10BDE8F7FF1F1E0D002031
:1035D000FEE70029018802D041F4806101E021F476
:1035E000806101807047838A0022008B43EA004398
:1035F00023F07F40814300D1012210467047C94328
:10360000818270470029018802D041F0010101E068
:1036100021F00101018070470029018802D041F4A6
:10362000807101E021F480710180704700290188D8
:1036300002D041F4007101E021F400710180704773
:10364000818A008B41EA004121F07F4070470000F1
:1036500070B50446808886B00D4620F03F06684667
:1036600001F0DAFB26490298B0FBF1F189B20E4372
:10367000A680228822F001022280224B2A689A42E8
:103680001CD85200B0FBF2F080B2042800D2042013
:10369000491C2184A083208840F0010020802188DB
:1036A0004FF6F5300140A8886A891043084320800E
:1036B000A88929890843208106B070BDEB88A3F54D
:1036C0003F46FF3E05D102EB4202B0FBF2F080B272
:1036D00008E002EBC20303EB0212B0FBF2F080B28F
:1036E00040F48040020501D140F001004FF4967291
:1036F00051434FF47A72B1FBF2F140F40040C7E756
:1037000040420F00A0860100008AC0B2704712B18B
:1037100041F0010101E001F0FE01018270470182E8
:10372000704700002DE9F04100260A4F35464FF45E
:10373000FA78304600F008F9040008D0BC4206D000
:103740000126404615F0C7FC6D1C042DF1D3204620
:10375000BDE8F0810100000F084810B500680C4674
:1037600000F00F00042801D0054810BDFFF7DAFF74
:103770000028FAD104B12060002010BD000A00200A
:103780000200000F2DE9F04700260B4F8146354619
:103790004FF4FA783146484600F04EF9040008D05C
:1037A000BC4206D00126404615F095FC6D1C042D48
:1037B000F0D32046BDE8F0870100000F2DE9F84F57
:1037C00006000C464FF0000736D0A4B30025356044
:1037D0004FF40079494631482560FCF7E0FCDFF8FA
:1037E000BC80FD2188F8131001F0CEFD010A88F895
:1037F000161088F817004946404602F057F800288E
:103800001BD142F22830824608F50078142015F0CA
:1038100062FC49462248CDF80090FCF7C0FC6A469D
:103820001F49012001F046FF002806D198F8130037
:10383000602807D103E0FFE71A48BDE8F88F7F1C36
:103840005745E3D398F81200424601064FF00400B2
:1038500011D5012131600FE0206001E0284625608C
:10386000917C01F0700108432060907CC0F302104D
:10387000012807D010E03560917C01F00F01062986
:10388000ECD1E9E7907F98F81D1010EB012003D1EF
:1038900001F0D2FC0028D0D10020CEE7D04100209A
:1038A000D04300200100000F2DE9FF4780460C00A7
:1038B000914635D04FF4007631461F48FCF76FFC37
:1038C0001D4FFD20F87401F05FFD0546000AB87534
:1038D000FD753146384601F0E9FF00281DD131461B
:1038E00007F500700396FCF75AFC144803AA07F585
:1038F00000718DE807004B462A464EF660210020F5
:1039000001F07CFD002808D1B8F1000F0BD0206831
:10391000039A2260904209D2094804B0BDE8F087BA
:103920000748C01EF9E703992160F6E705494046BC
:10393000FCF70EFC0020F0E7D0410020000A002038
:103940000400000FD04300202DE9FF4180464FF4D2
:10395000FA77384615F0BFFB4FF4007631461A4827
:10396000FCF71DFC184C012040212074E1746075A7
:1039700001F00AFD0546000AA075E575412084F8AE
:1039800020003146204601F091FF002818D1314631
:1039900004F500700396FCF702FC0C4803AA04F53A
:1039A00000718DE8070043462A464EF6602100204C
:1039B00001F024FD002803D1384615F08CFB0020CF
:1039C00004B0BDE8F0810000D0410020000A0020D2
:1039D0002DE9FF4107464FF4007529461448FCF7CE
:1039E000DEFB134EFF20F07401F0CEFC0446000A0B
:1039F000B075F4752946304601F058FF002813D100
:103A0000294606F500700395FCF7C9FB094803AA8F
:103A100006F500718DE807003B4622464EF6602110
:103A2000002001F0EBFC002804B0BDE8F0810000AC
:103A3000D0410020000A00202DE9FF4781468A4638
:103A40004FF4007841462148FCF7A9FB204F1F4C5A
:103A50003868012831D001202074EE20E07400265F
:103A600026750320607501F08FFC0546000AA075DD
:103A7000E575B9F1010F22D004F8206F4020607085
:103A8000A67044464146114801F010FF002811D1AC
:103A9000214610480394FCF782FB03A80D490097C8
:103AA000CDE9011053462A464EF66021002001F070
:103AB000A5FC002804B0BDE8F087EC20CEE7FF208D
:103AC00004F8200F6070A070DBE70000D0410020F8
:103AD000000A0020D04300202DE9FF4F8BB08B4619
:103AE000DDF864901746012B09D04EF66020049053
:103AF0000B98042805D07D480FB0BDE8F08F7C48B6
:103B0000F5E7141D24F003014FF4F070B1FBF0F65B
:103B1000B4FBF0F100FB114000B1761C4FF40071D2
:103B2000022E01D2009101E070020090714D4FF41D
:103B300000712846FCF733FB0020059006900790A3
:103B40004FF0010A08908DF814A0C0208DF81500E0
:103B500001F01AFC0390000A8DF81A0003988DF802
:103B60001B009F207F1C8DF82400380A8DF825004B
:103B70008DF82670FF1C07F0030705A8C01B103046
:103B80003A4609A9FCF7E4FAE01B804609A8C7F108
:103B90000304C119224605F12000FCF7D9FA05F10A
:103BA0001000012E4FF0100205A97ED9FCF7D0FAC3
:103BB00085F814A0E02068752819C4F5F07220304B
:103BC0005946FCF7C5FA0127761EB24618E000BF39
:103BD00005EB472006461030102205A9FCF7B8FA7D
:103BE00001203075E0207075C7EB07110BEB411019
:103BF000011B06F120004FF4F072FCF7A9FA7F1CBC
:103C00005745E5D34FF4F070B8FBF0F200FB12809B
:103C10005FEA000805EB4720064600F110004FF070
:103C2000100205A910D0FCF793FA4FEA182030755E
:103C3000C7EB07110BEB4110011B86F81580A8F1AB
:103C4000010206F120000EE0FCF782FA0120307537
:103C5000E0207075C7EB07110BEB4110011B06F15B
:103C6000200040F2DF12FCF773FA2846009901F0B9
:103C70001DFE00287FF440AF1F4C4FF4007120461A
:103C80000A91FCF78CFA0BA90AA80091CDE9014032
:103C9000DDE9032101201A9B01F020FC0028E9D175
:103CA0001899C9B1D9F8000000E007E00A9AC9F8EC
:103CB0000020904214D20D48C01C1DE7FCF748FAC2
:103CC0004FEA18202875A8EB0402521E281985F81F
:103CD000158020305946C6E70A9AC9F800200BE73C
:103CE00021461898FCF734FA002005E70100000F80
:103CF00020BF0200D0410020D043002010B5134C5B
:103D00002068017A022904D0042902D0062905D0AE
:103D100015E0FFF75FF92068007A11E04178052986
:103D200009D10178490606D1C07804F08FFA084815
:103D30000068006A8047074800688068804708205C
:103D400021680872BDE8104001F000B8DC0C0020CA
:103D5000E40C0020E00C0020F0B500230A253027F9
:103D60004FF0370C1C460FE0B5EB107F02D907EB84
:103D7000107601E00CEB107601F8136001EB4306BE
:103D800000015B1C7470DBB29342EDD3F0BD000008
:103D900070B504463F480025806801043E48016034
:103DA0000D2141604021C0E902150901016101F0C6
:103DB00023FA3A49486B10F0450FFBD0410702D572
:103DC0000324042003E0C00705D00124204601F0AD
:103DD0008BF9204670BD01F0C7F90D282ED140F2B5
:103DE000FF5001F081F9002001F0D6F9C0F3432122
:103DF00021702B4908424BD0002801DA1C2070BDED
:103E0000410001D5092070BD810001D50A2070BD97
:103E1000C10001D50B2070BD010101D50C2070BD82
:103E2000410101D50D2070BDC10101D50E2070BD2D
:103E3000010201D50F2070BD410201D5102070BDD7
:103E4000810201D5112070BDC10201D5122070BDC3
:103E5000010301D5132070BD410301D5142070BDAD
:103E6000810301D5152070BDC10301D5162070BD99
:103E7000010401D5172070BD410401D5182070BD83
:103E8000810401D5192070BD000701D51A2070BD2D
:103E9000284670BDAC0C00203C570020008001403B
:103EA00008E0FFFD0448817A044809B1052100E0DB
:103EB0000121016070470000E8570020D40C002069
:103EC000FEE700000020C0B04FF0FF3481460746F7
:103ED0000DF081FB0DF058FB20460DF00FFA0DF0B0
:103EE0000DFA17F032FA17F0F5FBFF4CFF480025EA
:103EF0004FF0030B2A9001200BF0A6F90DF0B9FA50
:103F0000FB4902200DF0F1FA14F030FA25706560DB
:103F100065700CF0E8FF15F0FFFC40B10DF0A9FA58
:103F2000F4A101200DF0E1FA0DF072F8F6E715F0BA
:103F300019FD00212FA80DF043FB40F6B83130A841
:103F40000DF03EFB962136A80DF03AFB41F2707160
:103F500033A80DF035FB16F0F9FF0121642017F0AE
:103F60009DFB00208246E74931A80DF029FB0DF0AA
:103F700080FA207810B3606850B101200CF02CFF5B
:103F800001230822617860680CF0C2FE65606570EC
:103F900020780CF021FF03E00CF02CFA0CF004FF69
:103FA0000CF076FA0028F7D104E000BF0CF08EFE8A
:103FB0000CF07AFA0CF06EFF0028F7D157B907F031
:103FC00017FB38B101200BF03FF940F6B83130A8AB
:103FD0000DF0F6FA07F00CFB07460DF05BF8002831
:103FE00035D001200BF030F9C64931A80DF0E8FAC0
:103FF00040F6B83130A80DF0E3FA0DF009F8ED28DD
:1040000001D0002120E02F980DF0E9F860B1BE4901
:1040100001200DF06AFABDA102200DF066FAC0A1E0
:1040200003200DF062FA0DE002A817F03FF90DF041
:1040300020FABEA101200DF058FA02AA00210220A8
:104040000DF05CFA4FF4C8712FA80DF0B9FA2F9853
:104050000DF0C5F870B10021012017F01BF816F023
:10406000E9FFA349012014310DF03FFAABA1022072
:104070000DF03BFA30980DF0B2F810B100200BF0C3
:10408000E3F80BF05DF888B107F0C0FA00200BF000
:10409000DBF805F099FA0BF053F800283FF42BAF4A
:1040A00001214FF4E1500AF0F9FE24E717F00EFA6F
:1040B000BAF1000F14D136980DF091F880B115F0D7
:1040C0003FFE03280AD30021642017F0E7FA0DF021
:1040D000CEF916F039FF0DF0CAF90CE7012082463F
:1040E00033980DF07CF830B115F03CFC41F2707162
:1040F00033A80DF065FA31980DF071F810B1002079
:104100000AF098FF15F0D8FB00284FF0000021D0EE
:1041100016F014FF15F0CEFB00283FF42AAF2F98BD
:104120000DF05DF848B183A103200DF0DEF9012107
:10413000002016F0AFFF16F07DFFB9F1000F10D18F
:10414000012081460BF080F840F6B83130A80DF020
:1041500037FA06E081460CF0D6FE20B3012016F0B7
:10416000EDFE15F09DFB0028D7D015F0F1FA1228CE
:104170002AD014282CD0112840D002287FF4F9AE80
:10418000502102A8FCF70BF8642102A815F014FBDB
:104190000028F3D1401E2E9000203D909DF808008D
:1041A0002C9070B34DE02F980DF019F80028B4D082
:1041B0004F4903203C310DF098F90021084616F0D4
:1041C00069FF16F037FFD4E600200CF0FAFF01E09B
:1041D00015F031FFC6B25B480078042803D03046A2
:1041E00015F0F4FAC5E6202102A8FBF7D8FF8DF8F8
:1041F0000860202102A815F0FBFABAE60DF037F9A5
:10420000B7E60122022102A815F0ACFA0028DAD1A3
:104210009DF80800FF2803D0FE280BD101203D9017
:104220009DF809002E900122022102A815F09AFAA9
:104230000028C8D19DF809009DF8081000EB012066
:104240002C90861C40F2DC50864207D916F06CFE9A
:1042500014200DF015F916F067FE8AE602223A489E
:104260002C9915F07FFA0028ADD1DFF8DC802C996D
:10427000012208EB0100022115F074FA0021084622
:1042800004E000BF18F800205140401CB042F9D3B0
:104290000020379031B1FF2080462CA116A8FBF7F3
:1042A000CFFF5BE316F040FE2B9598F800003790A7
:1042B00081383E900E2806D813F0E8F998B1012114
:1042C000642017F0EBF90F4931A80DF079F90121BD
:1042D000084616F0DFFE3798042859D046DC01283E
:1042E00056D0022838E03BE004000020F8100020FF
:1042F0009C10002020C0B6D1C0BCECB2E2CAA7B06E
:10430000DC000000407E050080100020494D415433
:10431000454956312E312C392E302E300000000008
:104320004E6F76202038203230313600D0F2C1D0A6
:10433000BAC53A00202020C0B6D1C0D2D1C1ACBD90
:10434000D300000000000020201B0020D0A3D1E9F2
:10435000C2EBB4EDCEF300001AD003280CD117E065
:10436000F8A116A8FBF76CFF6320BDE160280FD011
:1043700065280DD068280BD0F6A101200DF0B5F806
:10438000F5A102200DF0B1F8F2A103200DF0ADF877
:1043900001200AF059FF40F6B83130A80DF010F9AD
:1043A00037986A286FD014DC08286DD007DC0728FE
:1043B0006BD2DFE800F02C59616B6EA9C500603844
:1043C0000A28F5D2DFE800F0FAF6F5F461F361614E
:1043D000F2F1862874D010DC822872D006DC6B28BB
:1043E00070D06C286FD081284FD1F3E183286BD037
:1043F00084286AD08528F7D124E287380A28D7D2C2
:10440000DFE800F0EFEEEDECEB43434343EA2C9999
:104410004646491E701C14F0A7FC011E01DA01205B
:1044200004E0701C12F082FF18B102208046CEA179
:1044300008E02A980FF01AF9061E09DC8046861C4F
:1044400004D0CCA116A8FBF7FBFE80E2CCA1F9E7D3
:10445000CE483146821908322A9816F0BBFF002058
:10446000103680462B9672E298F801000CF0A9FEF7
:10447000C6490872012021E098F8021098F801005E
:1044800017F00CF9C6E022E16CE05CE20CF0EFFF03
:10449000C0E040F628212A98FBF781FE2A9816F002
:1044A00005FFBB4EB01CFBF7B6FE0C280ED0B7487C
:1044B0001122B11C2030FBF74BFE29202B90A9E0E4
:1044C000C3E19DE112E17DE1A3E1B5E10021DFF867
:1044D000BCC208464FF03A08B646421CB2FBFBF697
:1044E0000BFB16225AB10EEB01020CEB0003927883
:1044F00083F82020491C401C1128EED3DDE70CEB8B
:10450000000282F82080F6E72C98461E401F0D28F6
:1045100001D3A0A121E09E4808F1010141303246BB
:104520008046FBF715FE9A48304480F8415017F05A
:1045300020F8404615F0D4F980460CF098FF06E2CA
:1045400015F034F940B10021642017F0A7F80CF001
:104550008EFF16F0F9FC99E794A116A8FBF770FE00
:104560000120D9E198F8011059B198F802004FF0F4
:1045700002024FF00001F8B190A000BF0CF0AAFEBB
:1045800084E70222002102A80CF090FEDFF8FC81F3
:104590000126022288F8085088A102A82B96FBF772
:1045A00042FEB0BB88F8086034E082E043E077E088
:1045B0005CE031E047E001E081A0DFE7A5702C98E6
:1045C00002281DD398F80100464658B1012809D0A9
:1045D000022807D0042009E0ADE19FE183E169E111
:1045E0005BE14BE1042101EB4000C0B205F0A2FD0C
:1045F0002C98032804D1B078572801D10120A0704D
:10460000AFF2F8212A98FBF71BFE2A98FBF703FE6E
:1046100054E7FFE700207FE10121642017F03EF816
:1046200016A82C9900902BAB491E08F101002A9A7C
:1046300013F036F814E016AB2BAA08F101002A9902
:1046400014F0E4FB68E10CF012FF0121642017F084
:1046500025F898F8010016AB2BAA2A9914F0EEF869
:1046600080460021642017F019F870E10CF0FFFE7D
:104670000121642017F012F80121032017F016F829
:1046800016A8009098F8021098F801002BAB2A9A0F
:1046900013F0ACFC80460021032017F007F8E0E798
:1046A0000020804601202B9015F05CF937490872F4
:1046B0004DE116A92BA8CDE900012C9940F628233D
:1046C000491E08F101002A9A14F048F924E116A9BC
:1046D0002BA8CDE900012C9940F62823491E08F1AA
:1046E00001002A9A14F0A2F9804637E198F80100F7
:1046F0004646C00703D00121642016F0CFFF707832
:10470000800703D50121642016F0C8FF70784007A8
:1047100006D512F0BBFF18B10121642016F0BEFFD0
:1047200016A80090B17870782BAB2A9A16F0B2FADE
:1047300080460021642016F0B1FF0021642016F0AD
:10474000ADFF8EE7C9E8B1B8B2BBD6A7B3D6C9E40E
:10475000C6B5BFA80000000020202020D5FDD4DA77
:10476000B4A6C0ED00000000B8F1CABDB4EDCEF3B0
:1047700000000000BAAFCAFDC3FBB4EDCEF30000E9
:10478000B2CECAFDB4EDCEF300000000F010002060
:104790001C100020426C7565746F6F74682050693E
:1047A0006E20B3A4B6C8B4EDCEF30000B8C3B2D93E
:1047B000D7F7B1BBBDFBD6B900000000534D0000D8
:1047C0004D4D000098F801002A9915F0D8F8804660
:1047D000012060E016A8009098F8021098F80100F7
:1047E0002BAA2A9B14F0D8F95FEA000802D009F03E
:1047F0006BFAACE0DDE92A1238A8FBF7A9FCA6E0C9
:1048000009F03CFD5FEA000846D009F05DFA93A18B
:10481000A3E62C986B46401E81B208F101002A9A4B
:1048200009F086FD5FEA000803D009F04DFA8EA179
:1048300093E6BDF800002EE098F8010016A913F0E9
:1048400099FC69E009F040FAE4E64646F01C09F0FC
:10485000ABFA38B109F038FA86A116A8FBF7F0FCDC
:10486000022059E0B178707838AA09F0EBFE5FEACF
:1048700000086CD009F028FA83A16EE698F80100D0
:104880002A9909F07BFF5FEA000803D009F01CFABF
:1048900081A162E610202B9059E098F8010008F100
:1048A00002010AF037F85FEA000850D009F00CFA6C
:1048B0007DA152E698F8050098F8021098F80420B7
:1048C00000EB016098F80310090401EB0221014498
:1048D00098F8010009F0C6FE5FEA000837D009F039
:1048E000F3F975A139E698F8050098F8021098F8E0
:1048F000042000EB016098F80310090401EB022189
:10490000014498F8010009F0F3FE5FEA00081ED0A8
:1049100009F0DAF96CA120E6804618E098F8021058
:1049200098F8010009F05AFF5FEA00080FD009F07B
:10493000CBF969A111E616AB2BAA08F101002A995F
:1049400015F0F8FBE8E76320804667A17AE53E981A
:104950000E2803D80021642016F0A0FE40F6B831DE
:1049600030A80CF02DFE3D9810B115F0E9F92AE4BD
:10497000022002AE8DF80800B8F1000F08D016A88A
:10498000FBF749FC02462B9016A92A98FBF7E0FB9F
:104990002E98002811DB8DF80950FF208DF80A00B1
:1049A0002E988DF80B002B984FF0060C401C010A36
:1049B0008DF80C108DF80D0011E02B98401CFF288D
:1049C00009D98DF80950010A8DF80A108DF80B00ED
:1049D0004FF0040C03E08DF809004FF0020C02A91F
:1049E00006F80C800CF1010C434E6246A6EB0C005D
:1049F0000830CDF800C02E90FBF7AAFB88F003002A
:104A0000C1B20020DDF800C02B9A03E033181B7AF6
:104A10005940401C9042F9D3B318384883F808B085
:104A200059720CEB02010078891C042802D11F3155
:104A300021F01F012E9814F0DBFE15F081F916F01D
:104A400073FA14212FA80CF0BBFD379806288ED1DD
:104A5000B8F1000F8BD1FFF74EBA0000BCA4BBEE3B
:104A6000CAA7B0DC0000000041504455CAA7B0DC22
:104A700000000000BCD3D4D8C9C8C7F8C3DCD4BF79
:104A8000CAA7B0DC00000000C9C8C7F8C8CFD6A4C8
:104A9000CAA7B0DC00000000B6C1CAFDBEDDBFE998
:104AA000CAA7B0DC00000000D0B4CAFDBEDDBFE97B
:104AB000CAA7B0DC00000000C7AEB0FCBCF5D6B59C
:104AC000CAA7B0DC00000000C7AEB0FCBCD3D6B5AE
:104AD000CAA7B0DC00000000CAFDBEDDBFBDB1B496
:104AE000CAA7B0DC00000000B2BBD6A7B3D6B8C3DB
:104AF000B9A6C4DC00000000F01000200000002077
:104B00007047704770B50F22C57803784FF0E021E9
:104B10000124E5B1D1F80C5D0B4405F4E065C5F561
:104B2000E0652E0AC6F10405F2404678AE4085786D
:104B3000154035432A0183F80024007800F01F0255
:104B40009440400901EB8000C0F8004170BD03F0C3
:104B50001F008440580901EB8000C0F8804170BDFF
:104B60000249084302490860704700000000FA0546
:104B70000CED00E00907090E4FF0E022002805DAED
:104B800000F00F00104480F8141D7047104480F8A6
:104B90000014704770B5304D2868017844784A0693
:104BA00006D001F07F00012828D002282BD035E064
:104BB000092C06D0052C07D0032C0ED0012C14D0C4
:104BC0002CE003F0ABFD28E0C1787F292ED8817856
:104BD00061BB818851BB807A27E0C17801291DD152
:104BE0008088D8B903F0B6FD17E0C178012915D146
:104BF000818899B9407A80060AD40FE00B2C0DD138
:104C000003F000FE09E0012C02D0032C03D005E0E4
:104C100003F084FC01E003F0AFFD58B10F480068D9
:104C20004169E0B28847032802D018B108200FE09C
:104C300009200DE00A4A062000211268094B4FEABC
:104C4000024203EBD2325160074A4FF0300111802B
:104C50002968087270BD0000DC0C0020E00C002008
:104C6000505C004000600040160E002010B50F4C54
:104C70002068007A022811D004280FD0032804D01D
:104C8000052802D0072805D008E0FEF703FA2068BF
:104C9000007A04E006480068C06880470820216860
:104CA0000872BDE8104000F051B80000DC0C002094
:104CB000E00C0020054B521C520803EB410104D0CC
:104CC00008C920F8023B521EFAD17047006000402C
:104CD000014908627047000000000E4202490A685C
:104CE00042EA800008607047007000400D4B1A686F
:104CF00022F0030202431A604FF0E020D0F8102D9A
:104D000042F00402C0F8102D012908D0AFF3028050
:104D1000D0F8101D21F00401C0F8101D704730BFFD
:104D2000F6E7000000700040034A01460020526888
:104D30000A4200D00120704700700040014908601D
:104D400070470000A0000E42704700000B4810B5ED
:104D500090F82C10002003F0ABFA09480068017AA3
:104D6000082905D1074A48021080074A1020108000
:104D70000120092900D0002010BD00009C0D00205A
:104D8000DC0C0020140E0020160E002010B50120AF
:104D900004F0AEF90748012101604FF00001064A16
:104DA000016041604FF4E051118001604FF000005C
:104DB00010BD0000405C0040E80C0020034A516830
:104DC00021F440410143516070470000001002404F
:104DD000044A0029516901D0014300E08143516137
:104DE0007047000000100240044A0029D16901D038
:104DF000014300E08143D161704700000010024090
:104E0000044A0029916901D0014300E08143916186
:104E10007047000000100240224910B54A6812F0A5
:104E20000C03214A03D0042B01D0082B26D00260AA
:104E30004A681E4B02F0F00212099C5C0268E240D4
:104E400042604C6804F4E064240A1C5D22FA04F415
:104E500084604C6804F460544FEAD4241B5D22FA49
:104E600003F2C2604968114B01F440414FEA9131AD
:104E70001B1F595CB2FBF1F1016110BD4A684B6820
:104E800002F470124FF0020413F4803F04EB9242DC
:104E900002D04B689B0301D5054B00E0024B5A43FF
:104EA000C5E700000010024000127A000C0D00203F
:104EB00000093D000246002053090949012B0BD08F
:104EC000022B0BD0D1F8241002F01F0201239340D3
:104ED0000B4200D0012070470968F5E7096AF3E743
:104EE000001002400248406800F00C0070470000CB
:104EF000001002400B490A6822F480320A600A68F6
:104F000022F480220A60B0F5803F07D0B0F5802FF0
:104F100003D1086840F4A02008607047086840F496
:104F20008030F9E700100240014908607047000036
:104F30008004424201490866704700000000424276
:104F400001490860704700003C04424202490A6A75
:104F500002430A627047000000100240034A516891
:104F600021F003010143516070470000001002402E
:104F70000149086070470000D800424230B5002463
:104F80004FF4A0653120FFF795FF641CAC4201D0BF
:104F90000028F7D03120FFF78DFF002800D0012036
:104FA00030BD00000248018841F0100101807047C7
:104FB000042800400248018821F010010180704758
:104FC0000428004002488188008841EA0040704778
:104FD0001828004000B50246FFF7E4FF0348110C13
:104FE000018082805DF804EBFFF7E4BF20280040D9
:104FF00000B50246FFF7D6FF0448C2F30341018023
:1050000082805DF804EBFFF7D5BF00000828004060
:10501000034800BFB0F804188906FBD570470000AC
:10502000002000400648B0F8041821F00801A0F85C
:10503000041800BFB0F804180907FBD5704700003A
:105040000020004070B51E4C072800D02070217849
:10505000062604251B48062930D2DFE801F00306A6
:10506000090E162200F030F828E000F02DF80AE0D2
:10507000022060700320207070BD6078401E607058
:1050800060780028F8D1257070BDD0F8401C89B236
:1050900041F01001C0F8401C052020700A2060700B
:1050A00070BD6178491E617061780029F8D1D0F82F
:1050B000401C89B221F01001C0F8401C267070BD60
:1050C000D90C00200050004010B5064C206880B27A
:1050D00020F004002060FEF7E5FE4FF43F40206022
:1050E00010BD0000405C004001498863704700002B
:1050F0000080014001498863704700000080014042
:105100000149086070470000A00030420149086072
:10511000704700008C05304210B5094A01685162A1
:1051200041689162D16A21F0F703D0E9021421436A
:10513000D0E90440044321431943D16210BD00006B
:105140000080014006480021016041608160C1602B
:1051500041628162C162034A8263C1637047000099
:1051600000800140FF07C00001480069C0B27047DD
:1051700000800140034A01460020526B0A4200D0E1
:1051800001207047008001400248006800F00300E1
:1051900070470000008001400149405870470000FE
:1051A0001480014001F006B8044A0029D16B01D0F7
:1051B000014300E08143D16370470000008001405B
:1051C00030B5094B5A6847F6FF618A43017D846810
:1051D000C568214344682C43214304680069214386
:1051E00001431143596030BD00800140014800680F
:1051F000704700008080014010B5084A0168916046
:10520000D168CB0AD0E901142143D0E9034004431B
:10521000DB0221431943D16010BD00000080014032
:1052200004490A6822F003020A600A6802430A601D
:105230007047000000800140F8B54FF4007421462B
:105240001648FAF7ACFF154AFD20D07400F09CF820
:10525000010A9175D0754220107721460F4800F061
:1052600025FB002819D10E4F42F2283600251420C4
:1052700013F031FF21460A480094FAF790FF6A467E
:105280000749012000F016FA002806D1F87C6028B2
:1052900002D16D1CB542EAD30020F8BDD0410020F8
:1052A000D043002010B513F0ECFE002010BD00002C
:1052B0002DE9FC410026009600F030F8002825D1A9
:1052C000144F00254FF4FA783246694601A8FEF7DC
:1052D00075FA040009D0BC4215D00126404613F0EF
:1052E000FAFE6D1C042DEFD30DE00B490098086009
:1052F000019868B9642013F0EEFE0021084600F022
:1053000001FA040004D0FFF7CDFF2046BDE8FC8180
:105310000020FBE70100000F000A002010B513F089
:10532000B2FE002801DA024810BD002010BD0000C6
:105330000500000F10B5FFF7B5FF002010BD0000FD
:105340002DE9F05F0F4F002682468B46354607F168
:1053500003084FF4FA79324659465046FEF7A4FA4C
:1053600004000DD0BC4208D0444506D00126484672
:1053700013F0B1FE6D1C042DEDD32046BDE8F09F67
:105380000020FBE70100000F02490868401C80B2C2
:1053900008607047EC0C002030B10449096801F046
:1053A0000F0101600020704701487047000A00208B
:1053B0000100000F7FB505460C460CA16846FAF7C0
:1053C0003FFF6846FAF727FF401C35B1216820608F
:1053D000814204D2084804B070BD206003E06946F1
:1053E0002846FAF72DFF0020F5E70000332E332E74
:1053F000392E3331310000000400000F2DE9F84F41
:105400000746DDF830800A9D93469A464DB1B8F1C3
:10541000000F06D00220B1FBF0F62E4C4FF40079BD
:1054200020E02D48BDE8F88F13F055FEB6B1761E8A
:1054300049462046CDF80090FAF7B1FE6A4621466B
:10544000022000F037F90028ECD1E07C602808D079
:1054500010F0FF000AD000F17F60E3E71E48001D56
:10546000E0E70120002EDFDA0020DBE7012F05D185
:10547000A07C000602D41848401DD3E7A08ABAF1E8
:10548000000F46BAE08A40BA04D1584502D012480B
:10549000C01DC7E70420B7B9A17C0A0613D401F0E8
:1054A0000F01062900D000202860A17C324601F0BF
:1054B00070010843286004F120010B98FAF748FEB8
:1054C000C8F80060D0E7A17C01F00F010629EBD0FD
:1054D0000120E9E7D04100200100000F2DE9FF4F36
:1054E0008FB00C46DDE91CA001210D910021DDF8F3
:1054F00078B0009188460A91069189460991BAF1DF
:10550000000F0DD0BBF1000F0AD0624E04904FF493
:1055100000713046FAF743FE0220B4FBF0F5B3E029
:105520005D4813B0BDE8F08F012013F0D4FD75B1D4
:105530004FF4007007906D1E07AA3146012000F05D
:10554000B9F80028EDD1B9F1000F03D005E05248B9
:10555000001DE6E70998401C099000277CE0F4193B
:1055600010224EA12046FAF75EFE002872D1E07CA0
:10557000602804D00021894600286BD102E0012078
:10558000814667E00D98E8B3607F9F2862D10F984D
:10559000012805D1A07C000602D43F48401DC0E789
:1055A000E08B129940BA8046E08A40BA29B9119935
:1055B000884202D03848C01DB3E74046B8F5F07FB6
:1055C00003D94FF4F070019001E0CDF80480024659
:1055D00004F120010498FAF7BBFD019904980844EE
:1055E0004FF4F0710490B8FBF1F0009001FB1080D3
:1055F00010B10098401C0090012006900A900020F5
:105600000D9023E0FFE70A98217D401C81421DD1C7
:10561000C0EB0011B8EB411F02D94FF4F07004E069
:105620000A98A0EB001108EB41100246019004F12A
:1056300020010498FAF78CFD01990498084404901D
:105640000698401C06900A98401C0A9000990698FB
:10565000884205D207F5007707988742FFF47FAFAD
:105660000998022801D912485BE7069860B1B8F1A1
:10567000000F09D006990098814205D30421CAF889
:105680000010CBF8008002E0002DBFF64DAF0020E7
:1056900047E70000D04100200100000F5245535061
:1056A0004F4E53452A46524F4D2A494F00000000A5
:1056B0000100FF0F2DE9F0410F461568064614461C
:1056C0002946384613F0E2FCA84202D00748BDE85C
:1056D000F081206046B1102205A13846FAF7A3FDFB
:1056E00010B10248801CF2E70020F0E70500000F2F
:1056F000524553504F4E53452A46524F4D2A494F1B
:1057000000000000FEF728B82DE9F04700260F4FF3
:10571000804635464FF4FA793046FEF759F90400D1
:1057200008D0BC4206D00126484613F0D4FC6D1CBC
:10573000042DF1D3B8F1020F04D100210846FEF781
:105740000BF804462046BDE8F08700000100000F7A
:105750007CB51D46DDE90646124B1CB116B1B1F50C
:10576000EE7F01D918467CBD2368019301AB0093FD
:105770002B4600F019F80028F5D101996A18891E06
:1057800032F8022C52BA3260019135B120682160A2
:10579000884204D20348C01C7CBD21607CBD00202F
:1057A0007CBD00000100000F2DE9FF4F3C4887B091
:1057B00000250168DDF8508001F0700001F00F0154
:1057C0000491089993461E46B1F5EE7F03D93548FA
:1057D0000BB0BDE8F08FDFF8CC90334C09F1010934
:1057E00010280AD10498042807D1012A07D10120E2
:1057F000FDF7C8FF18B1A042EAD14846E8E700200B
:10580000A24603900096CDE90185DDE907125B46CB
:105810000498FEF761F9040036D000271BE037201A
:105820008DF814004FF4FA7013F055FC0096CDE992
:1058300001855B46012205A90498FEF74DF9040095
:1058400022D0184884421FD0A4F17060001F0AD0F3
:10585000801E08D07F1C544502D1022FDFD302E006
:105860001048844210D0A4F17060001F0CD0801E3C
:105870000AD04CB101254FF4FA7013F02CFC0398B8
:10588000401C03900428BDD3BBF1010F02D10020BE
:10589000FDF778FF544500D14C46204698E70000BC
:1058A000000A00200100000F0100FF0F2DE9F04168
:1058B00007464E0A0D46C80502D00F48BDE8F081E4
:1058C00010220EA13846FAF743FC012407E000BF7E
:1058D00007EB4420102209A1FAF73AFC641CB442F9
:1058E000F6D32946384613F0F9FBA84202D0024805
:1058F000001DE3E70020E1E70100000F494F2A57B0
:10590000524954452A4845414445522A0000000066
:105910000148FDF731BB00000020001000F020BB63
:10592000012070472DE9F84F0546444800248DF8C2
:10593000004040680E464FEA1050A046800602D450
:105940002520BDE8F88F3E4840683E49C0B2801C23
:10595000B1FBF0F70020FFF71FFC800101D50E20FE
:10596000EFE73948DFF8D4904FF0400B406809F179
:1059700098094FF4806A022806D06D02760218B1A9
:10598000012801D0022821D148462021C0E9005138
:10599000C9E902B82948C9F810A09830FFF72CFCD3
:1059A0002020FDF7FFF80028CBD148462121C0E98F
:1059B0000061C9E902B82148C9F810A09830FFF782
:1059C0001BFC2120FDF7EEF80028BAD14146262223
:1059D00089E806081948C9E9038A9830FFF70CFCE2
:1059E0002620FDF7DFF80028ABD100E0641CBC42A4
:1059F000FCD306F0BFFB144C6061701B401C00EB35
:105A000080004000A0616846FEF7C2F905460CE040
:105A10006846FEF7BDF9054606F0ACFB6169401A21
:105A2000A169884201D92C208BE72DB99DF800008F
:105A30000728EDD00628EBD0284682E7A4560020A0
:105A400000800140C0D40100AC0C00202DE9F043DF
:105A50009649DFF85C924D6880F84E508968A0F84E
:105A60004C10D9F800100A0E94090470C2F3830494
:105A7000447002F0030282700A0CC2700A0A0271BA
:105A80004171D9F80440210E0901C180C288C4F3D4
:105A9000074142EA1112C28001F00F010172C4F302
:105AA0000721CA094272C1F380128272C1F3401207
:105AB000C272C1F3001202734FF0000C80F80DC0E7
:105AC0004A464FF001089668320EC6F30743C6F304
:105AD000072725B1012D02D0022D2CD03DE08907EA
